{
  "_format": "hh-sol-artifact-1",
  "contractName": "LionToken",
  "sourceName": "contracts/LionToken.sol",
  "abi": [
    {
      "inputs": [
        {
          "internalType": "address",
          "name": "_lionsContract",
          "type": "address"
        }
      ],
      "stateMutability": "nonpayable",
      "type": "constructor"
    },
    {
      "anonymous": false,
      "inputs": [
        {
          "indexed": true,
          "internalType": "address",
          "name": "owner",
          "type": "address"
        },
        {
          "indexed": true,
          "internalType": "address",
          "name": "spender",
          "type": "address"
        },
        {
          "indexed": false,
          "internalType": "uint256",
          "name": "value",
          "type": "uint256"
        }
      ],
      "name": "Approval",
      "type": "event"
    },
    {
      "anonymous": false,
      "inputs": [
        {
          "indexed": true,
          "internalType": "address",
          "name": "previousOwner",
          "type": "address"
        },
        {
          "indexed": true,
          "internalType": "address",
          "name": "newOwner",
          "type": "address"
        }
      ],
      "name": "OwnershipTransferred",
      "type": "event"
    },
    {
      "anonymous": false,
      "inputs": [
        {
          "indexed": true,
          "internalType": "address",
          "name": "from",
          "type": "address"
        },
        {
          "indexed": true,
          "internalType": "address",
          "name": "to",
          "type": "address"
        },
        {
          "indexed": false,
          "internalType": "uint256",
          "name": "value",
          "type": "uint256"
        }
      ],
      "name": "Transfer",
      "type": "event"
    },
    {
      "inputs": [
        {
          "internalType": "address",
          "name": "owner",
          "type": "address"
        },
        {
          "internalType": "address",
          "name": "spender",
          "type": "address"
        }
      ],
      "name": "allowance",
      "outputs": [
        {
          "internalType": "uint256",
          "name": "",
          "type": "uint256"
        }
      ],
      "stateMutability": "view",
      "type": "function"
    },
    {
      "inputs": [
        {
          "internalType": "address",
          "name": "spender",
          "type": "address"
        },
        {
          "internalType": "uint256",
          "name": "amount",
          "type": "uint256"
        }
      ],
      "name": "approve",
      "outputs": [
        {
          "internalType": "bool",
          "name": "",
          "type": "bool"
        }
      ],
      "stateMutability": "nonpayable",
      "type": "function"
    },
    {
      "inputs": [
        {
          "internalType": "address",
          "name": "account",
          "type": "address"
        }
      ],
      "name": "balanceOf",
      "outputs": [
        {
          "internalType": "uint256",
          "name": "",
          "type": "uint256"
        }
      ],
      "stateMutability": "view",
      "type": "function"
    },
    {
      "inputs": [],
      "name": "claim",
      "outputs": [],
      "stateMutability": "nonpayable",
      "type": "function"
    },
    {
      "inputs": [],
      "name": "decimals",
      "outputs": [
        {
          "internalType": "uint8",
          "name": "",
          "type": "uint8"
        }
      ],
      "stateMutability": "view",
      "type": "function"
    },
    {
      "inputs": [
        {
          "internalType": "address",
          "name": "spender",
          "type": "address"
        },
        {
          "internalType": "uint256",
          "name": "subtractedValue",
          "type": "uint256"
        }
      ],
      "name": "decreaseAllowance",
      "outputs": [
        {
          "internalType": "bool",
          "name": "",
          "type": "bool"
        }
      ],
      "stateMutability": "nonpayable",
      "type": "function"
    },
    {
      "inputs": [
        {
          "internalType": "address",
          "name": "spender",
          "type": "address"
        },
        {
          "internalType": "uint256",
          "name": "addedValue",
          "type": "uint256"
        }
      ],
      "name": "increaseAllowance",
      "outputs": [
        {
          "internalType": "bool",
          "name": "",
          "type": "bool"
        }
      ],
      "stateMutability": "nonpayable",
      "type": "function"
    },
    {
      "inputs": [],
      "name": "maxTotalSupply",
      "outputs": [
        {
          "internalType": "uint256",
          "name": "",
          "type": "uint256"
        }
      ],
      "stateMutability": "view",
      "type": "function"
    },
    {
      "inputs": [
        {
          "internalType": "uint256",
          "name": "amount",
          "type": "uint256"
        }
      ],
      "name": "mint",
      "outputs": [],
      "stateMutability": "payable",
      "type": "function"
    },
    {
      "inputs": [],
      "name": "name",
      "outputs": [
        {
          "internalType": "string",
          "name": "",
          "type": "string"
        }
      ],
      "stateMutability": "view",
      "type": "function"
    },
    {
      "inputs": [],
      "name": "owner",
      "outputs": [
        {
          "internalType": "address",
          "name": "",
          "type": "address"
        }
      ],
      "stateMutability": "view",
      "type": "function"
    },
    {
      "inputs": [],
      "name": "renounceOwnership",
      "outputs": [],
      "stateMutability": "nonpayable",
      "type": "function"
    },
    {
      "inputs": [],
      "name": "symbol",
      "outputs": [
        {
          "internalType": "string",
          "name": "",
          "type": "string"
        }
      ],
      "stateMutability": "view",
      "type": "function"
    },
    {
      "inputs": [
        {
          "internalType": "uint256",
          "name": "",
          "type": "uint256"
        }
      ],
      "name": "tokenIdsClaimed",
      "outputs": [
        {
          "internalType": "bool",
          "name": "",
          "type": "bool"
        }
      ],
      "stateMutability": "view",
      "type": "function"
    },
    {
      "inputs": [],
      "name": "tokenPrice",
      "outputs": [
        {
          "internalType": "uint256",
          "name": "",
          "type": "uint256"
        }
      ],
      "stateMutability": "view",
      "type": "function"
    },
    {
      "inputs": [],
      "name": "tokensPerNFT",
      "outputs": [
        {
          "internalType": "uint256",
          "name": "",
          "type": "uint256"
        }
      ],
      "stateMutability": "view",
      "type": "function"
    },
    {
      "inputs": [],
      "name": "totalSupply",
      "outputs": [
        {
          "internalType": "uint256",
          "name": "",
          "type": "uint256"
        }
      ],
      "stateMutability": "view",
      "type": "function"
    },
    {
      "inputs": [
        {
          "internalType": "address",
          "name": "to",
          "type": "address"
        },
        {
          "internalType": "uint256",
          "name": "amount",
          "type": "uint256"
        }
      ],
      "name": "transfer",
      "outputs": [
        {
          "internalType": "bool",
          "name": "",
          "type": "bool"
        }
      ],
      "stateMutability": "nonpayable",
      "type": "function"
    },
    {
      "inputs": [
        {
          "internalType": "address",
          "name": "from",
          "type": "address"
        },
        {
          "internalType": "address",
          "name": "to",
          "type": "address"
        },
        {
          "internalType": "uint256",
          "name": "amount",
          "type": "uint256"
        }
      ],
      "name": "transferFrom",
      "outputs": [
        {
          "internalType": "bool",
          "name": "",
          "type": "bool"
        }
      ],
      "stateMutability": "nonpayable",
      "type": "function"
    },
    {
      "inputs": [
        {
          "internalType": "address",
          "name": "newOwner",
          "type": "address"
        }
      ],
      "name": "transferOwnership",
      "outputs": [],
      "stateMutability": "nonpayable",
      "type": "function"
    },
    {
      "inputs": [],
      "name": "withdraw",
      "outputs": [],
      "stateMutability": "nonpayable",
      "type": "function"
    }
  ],
  "bytecode": "0x60806040523480156200001157600080fd5b50604051620027ef380380620027ef833981810160405281019062000037919062000269565b6040518060400160405280600a81526020017f4c696f6e20546f6b656e000000000000000000000000000000000000000000008152506040518060400160405280600281526020017f4c540000000000000000000000000000000000000000000000000000000000008152508160039081620000b4919062000515565b508060049081620000c6919062000515565b505050620000e9620000dd6200013160201b60201c565b6200013960201b60201c565b80600660006101000a81548173ffffffffffffffffffffffffffffffffffffffff021916908373ffffffffffffffffffffffffffffffffffffffff16021790555050620005fc565b600033905090565b6000600560009054906101000a900473ffffffffffffffffffffffffffffffffffffffff16905081600560006101000a81548173ffffffffffffffffffffffffffffffffffffffff021916908373ffffffffffffffffffffffffffffffffffffffff1602179055508173ffffffffffffffffffffffffffffffffffffffff168173ffffffffffffffffffffffffffffffffffffffff167f8be0079c531659141344cd1fd0a4f28419497f9722a3daafe3b4186f6b6457e060405160405180910390a35050565b600080fd5b600073ffffffffffffffffffffffffffffffffffffffff82169050919050565b6000620002318262000204565b9050919050565b620002438162000224565b81146200024f57600080fd5b50565b600081519050620002638162000238565b92915050565b600060208284031215620002825762000281620001ff565b5b6000620002928482850162000252565b91505092915050565b600081519050919050565b7f4e487b7100000000000000000000000000000000000000000000000000000000600052604160045260246000fd5b7f4e487b7100000000000000000000000000000000000000000000000000000000600052602260045260246000fd5b600060028204905060018216806200031d57607f821691505b602082108103620003335762000332620002d5565b5b50919050565b60008190508160005260206000209050919050565b60006020601f8301049050919050565b600082821b905092915050565b6000600883026200039d7fffffffffffffffffffffffffffffffffffffffffffffffffffffffffffffffff826200035e565b620003a986836200035e565b95508019841693508086168417925050509392505050565b6000819050919050565b6000819050919050565b6000620003f6620003f0620003ea84620003c1565b620003cb565b620003c1565b9050919050565b6000819050919050565b6200041283620003d5565b6200042a6200042182620003fd565b8484546200036b565b825550505050565b600090565b6200044162000432565b6200044e81848462000407565b505050565b5b8181101562000476576200046a60008262000437565b60018101905062000454565b5050565b601f821115620004c5576200048f8162000339565b6200049a846200034e565b81016020851015620004aa578190505b620004c2620004b9856200034e565b83018262000453565b50505b505050565b600082821c905092915050565b6000620004ea60001984600802620004ca565b1980831691505092915050565b6000620005058383620004d7565b9150826002028217905092915050565b62000520826200029b565b67ffffffffffffffff8111156200053c576200053b620002a6565b5b62000548825462000304565b620005558282856200047a565b600060209050601f8311600181146200058d576000841562000578578287015190505b620005848582620004f7565b865550620005f4565b601f1984166200059d8662000339565b60005b82811015620005c757848901518255600182019150602085019450602081019050620005a0565b86831015620005e75784890151620005e3601f891682620004d7565b8355505b6001600288020188555050505b505050505050565b6121e3806200060c6000396000f3fe60806040526004361061012a5760003560e01c80635f3690af116100ab57806395d89b411161006f57806395d89b41146103d2578063a0712d68146103fd578063a457c2d714610419578063a9059cbb14610456578063dd62ed3e14610493578063f2fde38b146104d05761012a565b80635f3690af146102eb57806370a0823114610328578063715018a6146103655780637ff9b5961461037c5780638da5cb5b146103a75761012a565b8063313ce567116100f2578063313ce5671461022a57806339509351146102555780633ccfd60b146102925780634e71d92d146102a95780635afcc2f5146102c05761012a565b806306fdde031461012f578063095ea7b31461015a57806318160ddd1461019757806323b872dd146101c25780632ab4d052146101ff575b600080fd5b34801561013b57600080fd5b506101446104f9565b604051610151919061155c565b60405180910390f35b34801561016657600080fd5b50610181600480360381019061017c9190611617565b61058b565b60405161018e9190611672565b60405180910390f35b3480156101a357600080fd5b506101ac6105ae565b6040516101b9919061169c565b60405180910390f35b3480156101ce57600080fd5b506101e960048036038101906101e491906116b7565b6105b8565b6040516101f69190611672565b60405180910390f35b34801561020b57600080fd5b506102146105e7565b604051610221919061169c565b60405180910390f35b34801561023657600080fd5b5061023f6105f5565b60405161024c9190611726565b60405180910390f35b34801561026157600080fd5b5061027c60048036038101906102779190611617565b6105fe565b6040516102899190611672565b60405180910390f35b34801561029e57600080fd5b506102a7610635565b005b3480156102b557600080fd5b506102be6106ff565b005b3480156102cc57600080fd5b506102d5610970565b6040516102e2919061169c565b60405180910390f35b3480156102f757600080fd5b50610312600480360381019061030d9190611741565b61097c565b60405161031f9190611672565b60405180910390f35b34801561033457600080fd5b5061034f600480360381019061034a919061176e565b61099c565b60405161035c919061169c565b60405180910390f35b34801561037157600080fd5b5061037a6109e4565b005b34801561038857600080fd5b506103916109f8565b60405161039e919061169c565b60405180910390f35b3480156103b357600080fd5b506103bc610a03565b6040516103c991906117aa565b60405180910390f35b3480156103de57600080fd5b506103e7610a2d565b6040516103f4919061155c565b60405180910390f35b61041760048036038101906104129190611741565b610abf565b005b34801561042557600080fd5b50610440600480360381019061043b9190611617565b610b9f565b60405161044d9190611672565b60405180910390f35b34801561046257600080fd5b5061047d60048036038101906104789190611617565b610c16565b60405161048a9190611672565b60405180910390f35b34801561049f57600080fd5b506104ba60048036038101906104b591906117c5565b610c39565b6040516104c7919061169c565b60405180910390f35b3480156104dc57600080fd5b506104f760048036038101906104f2919061176e565b610cc0565b005b60606003805461050890611834565b80601f016020809104026020016040519081016040528092919081815260200182805461053490611834565b80156105815780601f1061055657610100808354040283529160200191610581565b820191906000526020600020905b81548152906001019060200180831161056457829003601f168201915b5050505050905090565b600080610596610d43565b90506105a3818585610d4b565b600191505092915050565b6000600254905090565b6000806105c3610d43565b90506105d0858285610f14565b6105db858585610fa0565b60019150509392505050565b69021e19e0c9bab240000081565b60006012905090565b600080610609610d43565b905061062a81858561061b8589610c39565b6106259190611894565b610d4b565b600191505092915050565b61063d61121f565b6000610647610a03565b9050600047905060008273ffffffffffffffffffffffffffffffffffffffff1682604051610674906118f9565b60006040518083038185875af1925050503d80600081146106b1576040519150601f19603f3d011682016040523d82523d6000602084013e6106b6565b606091505b50509050806106fa576040517f08c379a00000000000000000000000000000000000000000000000000000000081526004016106f19061195a565b60405180910390fd5b505050565b60003390506000600660009054906101000a900473ffffffffffffffffffffffffffffffffffffffff1673ffffffffffffffffffffffffffffffffffffffff166370a08231836040518263ffffffff1660e01b815260040161076191906117aa565b602060405180830381865afa15801561077e573d6000803e3d6000fd5b505050506040513d601f19601f820116820180604052508101906107a2919061198f565b9050600081116107e7576040517f08c379a00000000000000000000000000000000000000000000000000000000081526004016107de90611a08565b60405180910390fd5b6000805b8281101561090a576000600660009054906101000a900473ffffffffffffffffffffffffffffffffffffffff1673ffffffffffffffffffffffffffffffffffffffff16632f745c5986846040518363ffffffff1660e01b8152600401610852929190611a28565b602060405180830381865afa15801561086f573d6000803e3d6000fd5b505050506040513d601f19601f82011682018060405250810190610893919061198f565b90506007600082815260200190815260200160002060009054906101000a900460ff166108f6576001836108c79190611894565b925060016007600083815260200190815260200160002060006101000a81548160ff0219169083151502179055505b50808061090290611a51565b9150506107eb565b506000811161094e576040517f08c379a000000000000000000000000000000000000000000000000000000000815260040161094590611b0b565b60405180910390fd5b61096b33678ac7230489e80000836109669190611b2b565b61129d565b505050565b678ac7230489e8000081565b60076020528060005260406000206000915054906101000a900460ff1681565b60008060008373ffffffffffffffffffffffffffffffffffffffff1673ffffffffffffffffffffffffffffffffffffffff168152602001908152602001600020549050919050565b6109ec61121f565b6109f660006113fc565b565b66038d7ea4c6800081565b6000600560009054906101000a900473ffffffffffffffffffffffffffffffffffffffff16905090565b606060048054610a3c90611834565b80601f0160208091040260200160405190810160405280929190818152602001828054610a6890611834565b8015610ab55780601f10610a8a57610100808354040283529160200191610ab5565b820191906000526020600020905b815481529060010190602001808311610a9857829003601f168201915b5050505050905090565b60008166038d7ea4c68000610ad49190611b2b565b905080341015610b19576040517f08c379a0000000000000000000000000000000000000000000000000000000008152600401610b1090611bb9565b60405180910390fd5b6000670de0b6b3a764000083610b2f9190611b2b565b905069021e19e0c9bab240000081610b456105ae565b610b4f9190611894565b1115610b90576040517f08c379a0000000000000000000000000000000000000000000000000000000008152600401610b8790611c4b565b60405180910390fd5b610b9a338261129d565b505050565b600080610baa610d43565b90506000610bb88286610c39565b905083811015610bfd576040517f08c379a0000000000000000000000000000000000000000000000000000000008152600401610bf490611cdd565b60405180910390fd5b610c0a8286868403610d4b565b60019250505092915050565b600080610c21610d43565b9050610c2e818585610fa0565b600191505092915050565b6000600160008473ffffffffffffffffffffffffffffffffffffffff1673ffffffffffffffffffffffffffffffffffffffff16815260200190815260200160002060008373ffffffffffffffffffffffffffffffffffffffff1673ffffffffffffffffffffffffffffffffffffffff16815260200190815260200160002054905092915050565b610cc861121f565b600073ffffffffffffffffffffffffffffffffffffffff168173ffffffffffffffffffffffffffffffffffffffff1603610d37576040517f08c379a0000000000000000000000000000000000000000000000000000000008152600401610d2e90611d6f565b60405180910390fd5b610d40816113fc565b50565b600033905090565b600073ffffffffffffffffffffffffffffffffffffffff168373ffffffffffffffffffffffffffffffffffffffff1603610dba576040517f08c379a0000000000000000000000000000000000000000000000000000000008152600401610db190611e01565b60405180910390fd5b600073ffffffffffffffffffffffffffffffffffffffff168273ffffffffffffffffffffffffffffffffffffffff1603610e29576040517f08c379a0000000000000000000000000000000000000000000000000000000008152600401610e2090611e93565b60405180910390fd5b80600160008573ffffffffffffffffffffffffffffffffffffffff1673ffffffffffffffffffffffffffffffffffffffff16815260200190815260200160002060008473ffffffffffffffffffffffffffffffffffffffff1673ffffffffffffffffffffffffffffffffffffffff168152602001908152602001600020819055508173ffffffffffffffffffffffffffffffffffffffff168373ffffffffffffffffffffffffffffffffffffffff167f8c5be1e5ebec7d5bd14f71427d1e84f3dd0314c0f7b2291e5b200ac8c7c3b92583604051610f07919061169c565b60405180910390a3505050565b6000610f208484610c39565b90507fffffffffffffffffffffffffffffffffffffffffffffffffffffffffffffffff8114610f9a5781811015610f8c576040517f08c379a0000000000000000000000000000000000000000000000000000000008152600401610f8390611eff565b60405180910390fd5b610f998484848403610d4b565b5b50505050565b600073ffffffffffffffffffffffffffffffffffffffff168373ffffffffffffffffffffffffffffffffffffffff160361100f576040517f08c379a000000000000000000000000000000000000000000000000000000000815260040161100690611f91565b60405180910390fd5b600073ffffffffffffffffffffffffffffffffffffffff168273ffffffffffffffffffffffffffffffffffffffff160361107e576040517f08c379a000000000000000000000000000000000000000000000000000000000815260040161107590612023565b60405180910390fd5b6110898383836114c2565b60008060008573ffffffffffffffffffffffffffffffffffffffff1673ffffffffffffffffffffffffffffffffffffffff1681526020019081526020016000205490508181101561110f576040517f08c379a0000000000000000000000000000000000000000000000000000000008152600401611106906120b5565b60405180910390fd5b8181036000808673ffffffffffffffffffffffffffffffffffffffff1673ffffffffffffffffffffffffffffffffffffffff16815260200190815260200160002081905550816000808573ffffffffffffffffffffffffffffffffffffffff1673ffffffffffffffffffffffffffffffffffffffff16815260200190815260200160002060008282546111a29190611894565b925050819055508273ffffffffffffffffffffffffffffffffffffffff168473ffffffffffffffffffffffffffffffffffffffff167fddf252ad1be2c89b69c2b068fc378daa952ba7f163c4a11628f55a4df523b3ef84604051611206919061169c565b60405180910390a36112198484846114c7565b50505050565b611227610d43565b73ffffffffffffffffffffffffffffffffffffffff16611245610a03565b73ffffffffffffffffffffffffffffffffffffffff161461129b576040517f08c379a000000000000000000000000000000000000000000000000000000000815260040161129290612121565b60405180910390fd5b565b600073ffffffffffffffffffffffffffffffffffffffff168273ffffffffffffffffffffffffffffffffffffffff160361130c576040517f08c379a00000000000000000000000000000000000000000000000000000000081526004016113039061218d565b60405180910390fd5b611318600083836114c2565b806002600082825461132a9190611894565b92505081905550806000808473ffffffffffffffffffffffffffffffffffffffff1673ffffffffffffffffffffffffffffffffffffffff168152602001908152602001600020600082825461137f9190611894565b925050819055508173ffffffffffffffffffffffffffffffffffffffff16600073ffffffffffffffffffffffffffffffffffffffff167fddf252ad1be2c89b69c2b068fc378daa952ba7f163c4a11628f55a4df523b3ef836040516113e4919061169c565b60405180910390a36113f8600083836114c7565b5050565b6000600560009054906101000a900473ffffffffffffffffffffffffffffffffffffffff16905081600560006101000a81548173ffffffffffffffffffffffffffffffffffffffff021916908373ffffffffffffffffffffffffffffffffffffffff1602179055508173ffffffffffffffffffffffffffffffffffffffff168173ffffffffffffffffffffffffffffffffffffffff167f8be0079c531659141344cd1fd0a4f28419497f9722a3daafe3b4186f6b6457e060405160405180910390a35050565b505050565b505050565b600081519050919050565b600082825260208201905092915050565b60005b838110156115065780820151818401526020810190506114eb565b60008484015250505050565b6000601f19601f8301169050919050565b600061152e826114cc565b61153881856114d7565b93506115488185602086016114e8565b61155181611512565b840191505092915050565b600060208201905081810360008301526115768184611523565b905092915050565b600080fd5b600073ffffffffffffffffffffffffffffffffffffffff82169050919050565b60006115ae82611583565b9050919050565b6115be816115a3565b81146115c957600080fd5b50565b6000813590506115db816115b5565b92915050565b6000819050919050565b6115f4816115e1565b81146115ff57600080fd5b50565b600081359050611611816115eb565b92915050565b6000806040838503121561162e5761162d61157e565b5b600061163c858286016115cc565b925050602061164d85828601611602565b9150509250929050565b60008115159050919050565b61166c81611657565b82525050565b60006020820190506116876000830184611663565b92915050565b611696816115e1565b82525050565b60006020820190506116b1600083018461168d565b92915050565b6000806000606084860312156116d0576116cf61157e565b5b60006116de868287016115cc565b93505060206116ef868287016115cc565b925050604061170086828701611602565b9150509250925092565b600060ff82169050919050565b6117208161170a565b82525050565b600060208201905061173b6000830184611717565b92915050565b6000602082840312156117575761175661157e565b5b600061176584828501611602565b91505092915050565b6000602082840312156117845761178361157e565b5b6000611792848285016115cc565b91505092915050565b6117a4816115a3565b82525050565b60006020820190506117bf600083018461179b565b92915050565b600080604083850312156117dc576117db61157e565b5b60006117ea858286016115cc565b92505060206117fb858286016115cc565b9150509250929050565b7f4e487b7100000000000000000000000000000000000000000000000000000000600052602260045260246000fd5b6000600282049050600182168061184c57607f821691505b60208210810361185f5761185e611805565b5b50919050565b7f4e487b7100000000000000000000000000000000000000000000000000000000600052601160045260246000fd5b600061189f826115e1565b91506118aa836115e1565b92508282019050808211156118c2576118c1611865565b5b92915050565b600081905092915050565b50565b60006118e36000836118c8565b91506118ee826118d3565b600082019050919050565b6000611904826118d6565b9150819050919050565b7f4661696c656420746f2073656e64204574686572000000000000000000000000600082015250565b60006119446014836114d7565b915061194f8261190e565b602082019050919050565b6000602082019050818103600083015261197381611937565b9050919050565b600081519050611989816115eb565b92915050565b6000602082840312156119a5576119a461157e565b5b60006119b38482850161197a565b91505092915050565b7f596f7520646f6e2774206f776e20616e79204c696f6e204e4654000000000000600082015250565b60006119f2601a836114d7565b91506119fd826119bc565b602082019050919050565b60006020820190508181036000830152611a21816119e5565b9050919050565b6000604082019050611a3d600083018561179b565b611a4a602083018461168d565b9392505050565b6000611a5c826115e1565b91507fffffffffffffffffffffffffffffffffffffffffffffffffffffffffffffffff8203611a8e57611a8d611865565b5b600182019050919050565b7f596f75206861766520616c726561647920636c61696d656420616c6c2074686560008201527f20746f6b656e7300000000000000000000000000000000000000000000000000602082015250565b6000611af56027836114d7565b9150611b0082611a99565b604082019050919050565b60006020820190508181036000830152611b2481611ae8565b9050919050565b6000611b36826115e1565b9150611b41836115e1565b9250828202611b4f816115e1565b91508282048414831517611b6657611b65611865565b5b5092915050565b7f45746865722073656e74206e6f7420757020746f206d696e696d756d00000000600082015250565b6000611ba3601c836114d7565b9150611bae82611b6d565b602082019050919050565b60006020820190508181036000830152611bd281611b96565b9050919050565b7f4578636565647320746865206d617820746f74616c20737570706c792061766160008201527f696c61626c652e00000000000000000000000000000000000000000000000000602082015250565b6000611c356027836114d7565b9150611c4082611bd9565b604082019050919050565b60006020820190508181036000830152611c6481611c28565b9050919050565b7f45524332303a2064656372656173656420616c6c6f77616e63652062656c6f7760008201527f207a65726f000000000000000000000000000000000000000000000000000000602082015250565b6000611cc76025836114d7565b9150611cd282611c6b565b604082019050919050565b60006020820190508181036000830152611cf681611cba565b9050919050565b7f4f776e61626c653a206e6577206f776e657220697320746865207a65726f206160008201527f6464726573730000000000000000000000000000000000000000000000000000602082015250565b6000611d596026836114d7565b9150611d6482611cfd565b604082019050919050565b60006020820190508181036000830152611d8881611d4c565b9050919050565b7f45524332303a20617070726f76652066726f6d20746865207a65726f2061646460008201527f7265737300000000000000000000000000000000000000000000000000000000602082015250565b6000611deb6024836114d7565b9150611df682611d8f565b604082019050919050565b60006020820190508181036000830152611e1a81611dde565b9050919050565b7f45524332303a20617070726f766520746f20746865207a65726f20616464726560008201527f7373000000000000000000000000000000000000000000000000000000000000602082015250565b6000611e7d6022836114d7565b9150611e8882611e21565b604082019050919050565b60006020820190508181036000830152611eac81611e70565b9050919050565b7f45524332303a20696e73756666696369656e7420616c6c6f77616e6365000000600082015250565b6000611ee9601d836114d7565b9150611ef482611eb3565b602082019050919050565b60006020820190508181036000830152611f1881611edc565b9050919050565b7f45524332303a207472616e736665722066726f6d20746865207a65726f20616460008201527f6472657373000000000000000000000000000000000000000000000000000000602082015250565b6000611f7b6025836114d7565b9150611f8682611f1f565b604082019050919050565b60006020820190508181036000830152611faa81611f6e565b9050919050565b7f45524332303a207472616e7366657220746f20746865207a65726f206164647260008201527f6573730000000000000000000000000000000000000000000000000000000000602082015250565b600061200d6023836114d7565b915061201882611fb1565b604082019050919050565b6000602082019050818103600083015261203c81612000565b9050919050565b7f45524332303a207472616e7366657220616d6f756e742065786365656473206260008201527f616c616e63650000000000000000000000000000000000000000000000000000602082015250565b600061209f6026836114d7565b91506120aa82612043565b604082019050919050565b600060208201905081810360008301526120ce81612092565b9050919050565b7f4f776e61626c653a2063616c6c6572206973206e6f7420746865206f776e6572600082015250565b600061210b6020836114d7565b9150612116826120d5565b602082019050919050565b6000602082019050818103600083015261213a816120fe565b9050919050565b7f45524332303a206d696e7420746f20746865207a65726f206164647265737300600082015250565b6000612177601f836114d7565b915061218282612141565b602082019050919050565b600060208201905081810360008301526121a68161216a565b905091905056fea2646970667358221220bbe0df9bde8b75adf8974995213a9ce0387b065cf7ea49ee08ce3a288f85bcf864736f6c63430008110033",
  "linkReferences": {},
  "deployedLinkReferences": {}
}